{
  "abi": [
    {
      "type": "function",
      "name": "CreateJob",
      "inputs": [
        {
          "name": "jobCID",
          "type": "string",
          "internalType": "string"
        }
      ],
      "outputs": [],
      "stateMutability": "payable"
    },
    {
      "type": "function",
      "name": "HireFreelancer",
      "inputs": [
        {
          "name": "freelancerAddress",
          "type": "address",
          "internalType": "address"
        },
        {
          "name": "jobID",
          "type": "uint256",
          "internalType": "uint256"
        }
      ],
      "outputs": [],
      "stateMutability": "nonpayable"
    },
    {
      "type": "function",
      "name": "MarkJobCompleted",
      "inputs": [
        {
          "name": "jobID",
          "type": "uint256",
          "internalType": "uint256"
        }
      ],
      "outputs": [],
      "stateMutability": "nonpayable"
    },
    {
      "type": "function",
      "name": "getJobByJobID",
      "inputs": [
        {
          "name": "jobID",
          "type": "uint256",
          "internalType": "uint256"
        }
      ],
      "outputs": [
        {
          "name": "job",
          "type": "tuple",
          "internalType": "struct JobsContract.Job",
          "components": [
            {
              "name": "jobID",
              "type": "uint256",
              "internalType": "uint256"
            },
            {
              "name": "jobCID",
              "type": "string",
              "internalType": "string"
            },
            {
              "name": "completed",
              "type": "bool",
              "internalType": "bool"
            },
            {
              "name": "client",
              "type": "address",
              "internalType": "address"
            },
            {
              "name": "freelancer",
              "type": "address",
              "internalType": "address"
            },
            {
              "name": "amount",
              "type": "uint256",
              "internalType": "uint256"
            },
            {
              "name": "clientApproved",
              "type": "bool",
              "internalType": "bool"
            },
            {
              "name": "freelancerApproved",
              "type": "bool",
              "internalType": "bool"
            }
          ]
        }
      ],
      "stateMutability": "view"
    },
    {
      "type": "function",
      "name": "getJobOwner",
      "inputs": [
        {
          "name": "jobID",
          "type": "uint256",
          "internalType": "uint256"
        }
      ],
      "outputs": [
        {
          "name": "client",
          "type": "address",
          "internalType": "address"
        }
      ],
      "stateMutability": "view"
    },
    {
      "type": "function",
      "name": "getJobsByClientAddress",
      "inputs": [
        {
          "name": "clientAddress",
          "type": "address",
          "internalType": "address"
        }
      ],
      "outputs": [
        {
          "name": "jobs",
          "type": "tuple[]",
          "internalType": "struct JobsContract.Job[]",
          "components": [
            {
              "name": "jobID",
              "type": "uint256",
              "internalType": "uint256"
            },
            {
              "name": "jobCID",
              "type": "string",
              "internalType": "string"
            },
            {
              "name": "completed",
              "type": "bool",
              "internalType": "bool"
            },
            {
              "name": "client",
              "type": "address",
              "internalType": "address"
            },
            {
              "name": "freelancer",
              "type": "address",
              "internalType": "address"
            },
            {
              "name": "amount",
              "type": "uint256",
              "internalType": "uint256"
            },
            {
              "name": "clientApproved",
              "type": "bool",
              "internalType": "bool"
            },
            {
              "name": "freelancerApproved",
              "type": "bool",
              "internalType": "bool"
            }
          ]
        }
      ],
      "stateMutability": "view"
    },
    {
      "type": "event",
      "name": "FreelancerHired",
      "inputs": [
        {
          "name": "freelancerAddress",
          "type": "address",
          "indexed": true,
          "internalType": "address"
        },
        {
          "name": "jobID",
          "type": "uint256",
          "indexed": false,
          "internalType": "uint256"
        }
      ],
      "anonymous": false
    },
    {
      "type": "event",
      "name": "JobCompleted",
      "inputs": [
        {
          "name": "freelancerAddress",
          "type": "address",
          "indexed": true,
          "internalType": "address"
        },
        {
          "name": "jobID",
          "type": "uint256",
          "indexed": false,
          "internalType": "uint256"
        }
      ],
      "anonymous": false
    },
    {
      "type": "event",
      "name": "JobCreated",
      "inputs": [
        {
          "name": "clientAddress",
          "type": "address",
          "indexed": true,
          "internalType": "address"
        },
        {
          "name": "jobID",
          "type": "uint256",
          "indexed": false,
          "internalType": "uint256"
        },
        {
          "name": "jobCID",
          "type": "string",
          "indexed": false,
          "internalType": "string"
        },
        {
          "name": "amount",
          "type": "uint256",
          "indexed": false,
          "internalType": "uint256"
        }
      ],
      "anonymous": false
    }
  ],
  "bytecode": {
    "object": "0x6080604052348015600e575f5ffd5b50611ba28061001c5f395ff3fe608060405260043610610054575f3560e01c8063147f551114610058578063399d0ab214610094578063415c766e146100d05780637eef1c3f146100ec5780639e6007e314610114578063f2e6ee241461013c575b5f5ffd5b348015610063575f5ffd5b5061007e60048036038101906100799190610ffb565b610178565b60405161008b9190611065565b60405180910390f35b34801561009f575f5ffd5b506100ba60048036038101906100b591906110a8565b6101b1565b6040516100c791906112e3565b60405180910390f35b6100ea60048036038101906100e59190611364565b6103e8565b005b3480156100f7575f5ffd5b50610112600480360381019061010d9190610ffb565b610841565b005b34801561011f575f5ffd5b5061013a600480360381019061013591906113af565b610bfb565b005b348015610147575f5ffd5b50610162600480360381019061015d9190610ffb565b610d87565b60405161016f919061149a565b60405180910390f35b5f60035f8381526020019081526020015f205f9054906101000a900473ffffffffffffffffffffffffffffffffffffffff169050919050565b606060025f8373ffffffffffffffffffffffffffffffffffffffff1673ffffffffffffffffffffffffffffffffffffffff1681526020019081526020015f20805480602002602001604051908101604052809291908181526020015f905b828210156103dd578382905f5260205f209060060201604051806101000160405290815f820154815260200160018201805461024a906114e7565b80601f0160208091040260200160405190810160405280929190818152602001828054610276906114e7565b80156102c15780601f10610298576101008083540402835291602001916102c1565b820191905f5260205f20905b8154815290600101906020018083116102a457829003601f168201915b50505050508152602001600282015f9054906101000a900460ff161515151581526020016002820160019054906101000a900473ffffffffffffffffffffffffffffffffffffffff1673ffffffffffffffffffffffffffffffffffffffff1673ffffffffffffffffffffffffffffffffffffffff168152602001600382015f9054906101000a900473ffffffffffffffffffffffffffffffffffffffff1673ffffffffffffffffffffffffffffffffffffffff1673ffffffffffffffffffffffffffffffffffffffff16815260200160048201548152602001600582015f9054906101000a900460ff161515151581526020016005820160019054906101000a900460ff1615151515815250508152602001906001019061020f565b505050509050919050565b5f341161042a576040517f08c379a000000000000000000000000000000000000000000000000000000000815260040161042190611571565b60405180910390fd5b5f5f81548092919061043b906115bc565b91905055505f5f5490505f60405180610100016040528083815260200185858080601f0160208091040260200160405190810160405280939291908181526020018383808284375f81840152601f19601f8201169050808301925050505050505081526020015f151581526020013373ffffffffffffffffffffffffffffffffffffffff1681526020015f73ffffffffffffffffffffffffffffffffffffffff1681526020013481526020015f151581526020015f151581525090508060015f8481526020019081526020015f205f820151815f0155602082015181600101908161052691906117d0565b506040820151816002015f6101000a81548160ff02191690831515021790555060608201518160020160016101000a81548173ffffffffffffffffffffffffffffffffffffffff021916908373ffffffffffffffffffffffffffffffffffffffff1602179055506080820151816003015f6101000a81548173ffffffffffffffffffffffffffffffffffffffff021916908373ffffffffffffffffffffffffffffffffffffffff16021790555060a0820151816004015560c0820151816005015f6101000a81548160ff02191690831515021790555060e08201518160050160016101000a81548160ff02191690831515021790555090505060025f3373ffffffffffffffffffffffffffffffffffffffff1673ffffffffffffffffffffffffffffffffffffffff1681526020019081526020015f2081908060018154018082558091505060019003905f5260205f2090600602015f909190919091505f820151815f015560208201518160010190816106a091906117d0565b506040820151816002015f6101000a81548160ff02191690831515021790555060608201518160020160016101000a81548173ffffffffffffffffffffffffffffffffffffffff021916908373ffffffffffffffffffffffffffffffffffffffff1602179055506080820151816003015f6101000a81548173ffffffffffffffffffffffffffffffffffffffff021916908373ffffffffffffffffffffffffffffffffffffffff16021790555060a0820151816004015560c0820151816005015f6101000a81548160ff02191690831515021790555060e08201518160050160016101000a81548160ff02191690831515021790555050503360035f8481526020019081526020015f205f6101000a81548173ffffffffffffffffffffffffffffffffffffffff021916908373ffffffffffffffffffffffffffffffffffffffff1602179055503373ffffffffffffffffffffffffffffffffffffffff167f1850cb159d3bd852005b06f666d3d564d998c70dc77673a3787aa2a4974b7c1c8386863460405161083394939291906118e8565b60405180910390a250505050565b5f60015f8381526020019081526020015f209050806002015f9054906101000a900460ff16156108a6576040517f08c379a000000000000000000000000000000000000000000000000000000000815260040161089d90611970565b60405180910390fd5b8060020160019054906101000a900473ffffffffffffffffffffffffffffffffffffffff1673ffffffffffffffffffffffffffffffffffffffff163373ffffffffffffffffffffffffffffffffffffffff1614806109525750806003015f9054906101000a900473ffffffffffffffffffffffffffffffffffffffff1673ffffffffffffffffffffffffffffffffffffffff163373ffffffffffffffffffffffffffffffffffffffff16145b610991576040517f08c379a0000000000000000000000000000000000000000000000000000000008152600401610988906119fe565b60405180910390fd5b8060020160019054906101000a900473ffffffffffffffffffffffffffffffffffffffff1673ffffffffffffffffffffffffffffffffffffffff163373ffffffffffffffffffffffffffffffffffffffff1603610a09576001816005015f6101000a81548160ff021916908315150217905550610a7e565b806003015f9054906101000a900473ffffffffffffffffffffffffffffffffffffffff1673ffffffffffffffffffffffffffffffffffffffff163373ffffffffffffffffffffffffffffffffffffffff1603610a7d5760018160050160016101000a81548160ff0219169083151502179055505b5b8060050160019054906101000a900460ff168015610aa95750806005015f9054906101000a900460ff165b15610bf7576001816002015f6101000a81548160ff0219169083151502179055505f816004015490505f82600401819055505f826003015f9054906101000a900473ffffffffffffffffffffffffffffffffffffffff1673ffffffffffffffffffffffffffffffffffffffff1682604051610b2390611a49565b5f6040518083038185875af1925050503d805f8114610b5d576040519150601f19603f3d011682016040523d82523d5f602084013e610b62565b606091505b5050905080610ba6576040517f08c379a0000000000000000000000000000000000000000000000000000000008152600401610b9d90611acd565b60405180910390fd5b3373ffffffffffffffffffffffffffffffffffffffff167fa53b6314802f9adf26d219558e978c01671cf4d07e0e8a43ee5b92b9bcbc3afd85604051610bec9190611aeb565b60405180910390a250505b5050565b5f60015f8381526020019081526020015f2090503373ffffffffffffffffffffffffffffffffffffffff168160020160019054906101000a900473ffffffffffffffffffffffffffffffffffffffff1673ffffffffffffffffffffffffffffffffffffffff1614610ca1576040517f08c379a0000000000000000000000000000000000000000000000000000000008152600401610c9890611b4e565b60405180910390fd5b806002015f9054906101000a900460ff1615610cf2576040517f08c379a0000000000000000000000000000000000000000000000000000000008152600401610ce990611970565b60405180910390fd5b82816003015f6101000a81548173ffffffffffffffffffffffffffffffffffffffff021916908373ffffffffffffffffffffffffffffffffffffffff1602179055508273ffffffffffffffffffffffffffffffffffffffff167f16972d1f25f50086280d5ee93b7c4a3beab83061389b6c8da01ac8a3abc3dde583604051610d7a9190611aeb565b60405180910390a2505050565b610d8f610f50565b60015f8381526020019081526020015f20604051806101000160405290815f8201548152602001600182018054610dc5906114e7565b80601f0160208091040260200160405190810160405280929190818152602001828054610df1906114e7565b8015610e3c5780601f10610e1357610100808354040283529160200191610e3c565b820191905f5260205f20905b815481529060010190602001808311610e1f57829003601f168201915b50505050508152602001600282015f9054906101000a900460ff161515151581526020016002820160019054906101000a900473ffffffffffffffffffffffffffffffffffffffff1673ffffffffffffffffffffffffffffffffffffffff1673ffffffffffffffffffffffffffffffffffffffff168152602001600382015f9054906101000a900473ffffffffffffffffffffffffffffffffffffffff1673ffffffffffffffffffffffffffffffffffffffff1673ffffffffffffffffffffffffffffffffffffffff16815260200160048201548152602001600582015f9054906101000a900460ff161515151581526020016005820160019054906101000a900460ff1615151515815250509050919050565b6040518061010001604052805f8152602001606081526020015f151581526020015f73ffffffffffffffffffffffffffffffffffffffff1681526020015f73ffffffffffffffffffffffffffffffffffffffff1681526020015f81526020015f151581526020015f151581525090565b5f5ffd5b5f5ffd5b5f819050919050565b610fda81610fc8565b8114610fe4575f5ffd5b50565b5f81359050610ff581610fd1565b92915050565b5f602082840312156110105761100f610fc0565b5b5f61101d84828501610fe7565b91505092915050565b5f73ffffffffffffffffffffffffffffffffffffffff82169050919050565b5f61104f82611026565b9050919050565b61105f81611045565b82525050565b5f6020820190506110785f830184611056565b92915050565b61108781611045565b8114611091575f5ffd5b50565b5f813590506110a28161107e565b92915050565b5f602082840312156110bd576110bc610fc0565b5b5f6110ca84828501611094565b91505092915050565b5f81519050919050565b5f82825260208201905092915050565b5f819050602082019050919050565b61110581610fc8565b82525050565b5f81519050919050565b5f82825260208201905092915050565b8281835e5f83830152505050565b5f601f19601f8301169050919050565b5f61114d8261110b565b6111578185611115565b9350611167818560208601611125565b61117081611133565b840191505092915050565b5f8115159050919050565b61118f8161117b565b82525050565b61119e81611045565b82525050565b5f61010083015f8301516111ba5f8601826110fc565b50602083015184820360208601526111d28282611143565b91505060408301516111e76040860182611186565b5060608301516111fa6060860182611195565b50608083015161120d6080860182611195565b5060a083015161122060a08601826110fc565b5060c083015161123360c0860182611186565b5060e083015161124660e0860182611186565b508091505092915050565b5f61125c83836111a4565b905092915050565b5f602082019050919050565b5f61127a826110d3565b61128481856110dd565b935083602082028501611296856110ed565b805f5b858110156112d157848403895281516112b28582611251565b94506112bd83611264565b925060208a01995050600181019050611299565b50829750879550505050505092915050565b5f6020820190508181035f8301526112fb8184611270565b905092915050565b5f5ffd5b5f5ffd5b5f5ffd5b5f5f83601f84011261132457611323611303565b5b8235905067ffffffffffffffff81111561134157611340611307565b5b60208301915083600182028301111561135d5761135c61130b565b5b9250929050565b5f5f6020838503121561137a57611379610fc0565b5b5f83013567ffffffffffffffff81111561139757611396610fc4565b5b6113a38582860161130f565b92509250509250929050565b5f5f604083850312156113c5576113c4610fc0565b5b5f6113d285828601611094565b92505060206113e385828601610fe7565b9150509250929050565b5f61010083015f8301516114035f8601826110fc565b506020830151848203602086015261141b8282611143565b91505060408301516114306040860182611186565b5060608301516114436060860182611195565b5060808301516114566080860182611195565b5060a083015161146960a08601826110fc565b5060c083015161147c60c0860182611186565b5060e083015161148f60e0860182611186565b508091505092915050565b5f6020820190508181035f8301526114b281846113ed565b905092915050565b7f4e487b71000000000000000000000000000000000000000000000000000000005f52602260045260245ffd5b5f60028204905060018216806114fe57607f821691505b602082108103611511576115106114ba565b5b50919050565b5f82825260208201905092915050565b7f46756e647320726571756972656420746f20637265617465206a6f62000000005f82015250565b5f61155b601c83611517565b915061156682611527565b602082019050919050565b5f6020820190508181035f8301526115888161154f565b9050919050565b7f4e487b71000000000000000000000000000000000000000000000000000000005f52601160045260245ffd5b5f6115c682610fc8565b91507fffffffffffffffffffffffffffffffffffffffffffffffffffffffffffffffff82036115f8576115f761158f565b5b600182019050919050565b7f4e487b71000000000000000000000000000000000000000000000000000000005f52604160045260245ffd5b5f819050815f5260205f209050919050565b5f6020601f8301049050919050565b5f82821b905092915050565b5f6008830261168c7fffffffffffffffffffffffffffffffffffffffffffffffffffffffffffffffff82611651565b6116968683611651565b95508019841693508086168417925050509392505050565b5f819050919050565b5f6116d16116cc6116c784610fc8565b6116ae565b610fc8565b9050919050565b5f819050919050565b6116ea836116b7565b6116fe6116f6826116d8565b84845461165d565b825550505050565b5f5f905090565b611715611706565b6117208184846116e1565b505050565b5b81811015611743576117385f8261170d565b600181019050611726565b5050565b601f8211156117885761175981611630565b61176284611642565b81016020851015611771578190505b61178561177d85611642565b830182611725565b50505b505050565b5f82821c905092915050565b5f6117a85f198460080261178d565b1980831691505092915050565b5f6117c08383611799565b9150826002028217905092915050565b6117d98261110b565b67ffffffffffffffff8111156117f2576117f1611603565b5b6117fc82546114e7565b611807828285611747565b5f60209050601f831160018114611838575f8415611826578287015190505b61183085826117b5565b865550611897565b601f19841661184686611630565b5f5b8281101561186d57848901518255600182019150602085019450602081019050611848565b8683101561188a5784890151611886601f891682611799565b8355505b6001600288020188555050505b505050505050565b6118a881610fc8565b82525050565b828183375f83830152505050565b5f6118c78385611517565b93506118d48385846118ae565b6118dd83611133565b840190509392505050565b5f6060820190506118fb5f83018761189f565b818103602083015261190e8185876118bc565b905061191d604083018461189f565b95945050505050565b7f4a6f6220616c726561647920636f6d706c6574656400000000000000000000005f82015250565b5f61195a601583611517565b915061196582611926565b602082019050919050565b5f6020820190508181035f8301526119878161194e565b9050919050565b7f4f6e6c7920636c69656e74206f7220667265656c616e6365722063616e206d615f8201527f726b206a6f6220636f6d706c6574656400000000000000000000000000000000602082015250565b5f6119e8603083611517565b91506119f38261198e565b604082019050919050565b5f6020820190508181035f830152611a15816119dc565b9050919050565b5f81905092915050565b50565b5f611a345f83611a1c565b9150611a3f82611a26565b5f82019050919050565b5f611a5382611a29565b9150819050919050565b7f4661696c656420746f207472616e736665722066756e647320746f20667265655f8201527f6c616e6365720000000000000000000000000000000000000000000000000000602082015250565b5f611ab7602683611517565b9150611ac282611a5d565b604082019050919050565b5f6020820190508181035f830152611ae481611aab565b9050919050565b5f602082019050611afe5f83018461189f565b92915050565b7f4f6e6c7920636c69656e742063616e206869726520667265656c616e636572005f82015250565b5f611b38601f83611517565b9150611b4382611b04565b602082019050919050565b5f6020820190508181035f830152611b6581611b2c565b905091905056fea26469706673582212205dc9b0fcbe26c986225801f9cf03eca4ee2fb4b002d7d533af3a6ead9624d4df64736f6c634300081e0033",
    "linkReferences": {}
  },
  "methodIdentifiers": {
    "CreateJob(string)": "415c766e",
    "HireFreelancer(address,uint256)": "9e6007e3",
    "MarkJobCompleted(uint256)": "7eef1c3f",
    "getJobByJobID(uint256)": "f2e6ee24",
    "getJobOwner(uint256)": "147f5511",
    "getJobsByClientAddress(address)": "399d0ab2"
  },
  "id": 19
}