{
  "abi": [
    {
      "type": "function",
      "name": "getProfileByAddress",
      "inputs": [
        {
          "name": "user",
          "type": "address",
          "internalType": "address"
        }
      ],
      "outputs": [
        {
          "name": "userProfile",
          "type": "tuple",
          "internalType": "struct UserProfile.Profile",
          "components": [
            {
              "name": "userID",
              "type": "uint256",
              "internalType": "uint256"
            },
            {
              "name": "username",
              "type": "string",
              "internalType": "string"
            },
            {
              "name": "cid",
              "type": "string",
              "internalType": "string"
            },
            {
              "name": "role",
              "type": "string",
              "internalType": "string"
            },
            {
              "name": "userAddress",
              "type": "address",
              "internalType": "address"
            }
          ]
        }
      ],
      "stateMutability": "view"
    },
    {
      "type": "function",
      "name": "getUserByUsername",
      "inputs": [
        {
          "name": "username",
          "type": "string",
          "internalType": "string"
        }
      ],
      "outputs": [
        {
          "name": "",
          "type": "address",
          "internalType": "address"
        }
      ],
      "stateMutability": "view"
    },
    {
      "type": "function",
      "name": "setProfile",
      "inputs": [
        {
          "name": "username",
          "type": "string",
          "internalType": "string"
        },
        {
          "name": "cid",
          "type": "string",
          "internalType": "string"
        },
        {
          "name": "role",
          "type": "string",
          "internalType": "string"
        }
      ],
      "outputs": [],
      "stateMutability": "nonpayable"
    },
    {
      "type": "event",
      "name": "ProfileSet",
      "inputs": [
        {
          "name": "user",
          "type": "address",
          "indexed": true,
          "internalType": "address"
        },
        {
          "name": "username",
          "type": "string",
          "indexed": false,
          "internalType": "string"
        },
        {
          "name": "cid",
          "type": "string",
          "indexed": false,
          "internalType": "string"
        }
      ],
      "anonymous": false
    }
  ],
  "bytecode": {
    "object": "0x6080604052348015600e575f5ffd5b506113898061001c5f395ff3fe608060405234801561000f575f5ffd5b506004361061003f575f3560e01c80634cd6959c1461004357806352640314146100735780639f42af631461008f575b5f5ffd5b61005d6004803603810190610058919061097a565b6100bf565b60405161006a9190610abd565b60405180910390f35b61008d60048036038101906100889190610b3e565b610324565b005b6100a960048036038101906100a49190610bee565b61088c565b6040516100b69190610c48565b60405180910390f35b6100c76108d5565b60015f8373ffffffffffffffffffffffffffffffffffffffff1673ffffffffffffffffffffffffffffffffffffffff1681526020019081526020015f206040518060a00160405290815f820154815260200160018201805461012890610c8e565b80601f016020809104026020016040519081016040528092919081815260200182805461015490610c8e565b801561019f5780601f106101765761010080835404028352916020019161019f565b820191905f5260205f20905b81548152906001019060200180831161018257829003601f168201915b505050505081526020016002820180546101b890610c8e565b80601f01602080910402602001604051908101604052809291908181526020018280546101e490610c8e565b801561022f5780601f106102065761010080835404028352916020019161022f565b820191905f5260205f20905b81548152906001019060200180831161021257829003601f168201915b5050505050815260200160038201805461024890610c8e565b80601f016020809104026020016040519081016040528092919081815260200182805461027490610c8e565b80156102bf5780601f10610296576101008083540402835291602001916102bf565b820191905f5260205f20905b8154815290600101906020018083116102a257829003601f168201915b50505050508152602001600482015f9054906101000a900473ffffffffffffffffffffffffffffffffffffffff1673ffffffffffffffffffffffffffffffffffffffff1673ffffffffffffffffffffffffffffffffffffffff16815250509050919050565b5f8686905011610369576040517f08c379a000000000000000000000000000000000000000000000000000000000815260040161036090610d18565b60405180910390fd5b5f84849050116103ae576040517f08c379a00000000000000000000000000000000000000000000000000000000081526004016103a590610d80565b60405180910390fd5b5f5f8154809291906103bf90610dcb565b91905055505f5f5490505f60015f3373ffffffffffffffffffffffffffffffffffffffff1673ffffffffffffffffffffffffffffffffffffffff1681526020019081526020015f2090505f81600101805461041990610c8e565b9050036104d2575f73ffffffffffffffffffffffffffffffffffffffff1660028989604051610449929190610e4e565b90815260200160405180910390205f9054906101000a900473ffffffffffffffffffffffffffffffffffffffff1673ffffffffffffffffffffffffffffffffffffffff16146104cd576040517f08c379a00000000000000000000000000000000000000000000000000000000081526004016104c490610eb0565b60405180910390fd5b6105fa565b87876040516104e2929190610efc565b6040518091039020816001016040516104fb9190610fa6565b6040518091039020146105f9575f73ffffffffffffffffffffffffffffffffffffffff1660028989604051610531929190610e4e565b90815260200160405180910390205f9054906101000a900473ffffffffffffffffffffffffffffffffffffffff1673ffffffffffffffffffffffffffffffffffffffff16146105b5576040517f08c379a00000000000000000000000000000000000000000000000000000000081526004016105ac90610eb0565b60405180910390fd5b6002816001016040516105c8919061104e565b90815260200160405180910390205f6101000a81549073ffffffffffffffffffffffffffffffffffffffff02191690555b5b6040518060a0016040528083815260200189898080601f0160208091040260200160405190810160405280939291908181526020018383808284375f81840152601f19601f82011690508083019250505050505050815260200187878080601f0160208091040260200160405190810160405280939291908181526020018383808284375f81840152601f19601f82011690508083019250505050505050815260200185858080601f0160208091040260200160405190810160405280939291908181526020018383808284375f81840152601f19601f8201169050808301925050505050505081526020013373ffffffffffffffffffffffffffffffffffffffff1681525060015f3373ffffffffffffffffffffffffffffffffffffffff1673ffffffffffffffffffffffffffffffffffffffff1681526020019081526020015f205f820151815f0155602082015181600101908161075a919061121f565b506040820151816002019081610770919061121f565b506060820151816003019081610786919061121f565b506080820151816004015f6101000a81548173ffffffffffffffffffffffffffffffffffffffff021916908373ffffffffffffffffffffffffffffffffffffffff16021790555090505033600289896040516107e3929190610e4e565b90815260200160405180910390205f6101000a81548173ffffffffffffffffffffffffffffffffffffffff021916908373ffffffffffffffffffffffffffffffffffffffff1602179055503373ffffffffffffffffffffffffffffffffffffffff167fb947e5f7a9b3690a161727d5722da52d5a91a32bed740ff49534fa20d91044708989898960405161087a949392919061131a565b60405180910390a25050505050505050565b5f6002838360405161089f929190610e4e565b90815260200160405180910390205f9054906101000a900473ffffffffffffffffffffffffffffffffffffffff16905092915050565b6040518060a001604052805f81526020016060815260200160608152602001606081526020015f73ffffffffffffffffffffffffffffffffffffffff1681525090565b5f5ffd5b5f5ffd5b5f73ffffffffffffffffffffffffffffffffffffffff82169050919050565b5f61094982610920565b9050919050565b6109598161093f565b8114610963575f5ffd5b50565b5f8135905061097481610950565b92915050565b5f6020828403121561098f5761098e610918565b5b5f61099c84828501610966565b91505092915050565b5f819050919050565b6109b7816109a5565b82525050565b5f81519050919050565b5f82825260208201905092915050565b8281835e5f83830152505050565b5f601f19601f8301169050919050565b5f6109ff826109bd565b610a0981856109c7565b9350610a198185602086016109d7565b610a22816109e5565b840191505092915050565b610a368161093f565b82525050565b5f60a083015f830151610a515f8601826109ae565b5060208301518482036020860152610a6982826109f5565b91505060408301518482036040860152610a8382826109f5565b91505060608301518482036060860152610a9d82826109f5565b9150506080830151610ab26080860182610a2d565b508091505092915050565b5f6020820190508181035f830152610ad58184610a3c565b905092915050565b5f5ffd5b5f5ffd5b5f5ffd5b5f5f83601f840112610afe57610afd610add565b5b8235905067ffffffffffffffff811115610b1b57610b1a610ae1565b5b602083019150836001820283011115610b3757610b36610ae5565b5b9250929050565b5f5f5f5f5f5f60608789031215610b5857610b57610918565b5b5f87013567ffffffffffffffff811115610b7557610b7461091c565b5b610b8189828a01610ae9565b9650965050602087013567ffffffffffffffff811115610ba457610ba361091c565b5b610bb089828a01610ae9565b9450945050604087013567ffffffffffffffff811115610bd357610bd261091c565b5b610bdf89828a01610ae9565b92509250509295509295509295565b5f5f60208385031215610c0457610c03610918565b5b5f83013567ffffffffffffffff811115610c2157610c2061091c565b5b610c2d85828601610ae9565b92509250509250929050565b610c428161093f565b82525050565b5f602082019050610c5b5f830184610c39565b92915050565b7f4e487b71000000000000000000000000000000000000000000000000000000005f52602260045260245ffd5b5f6002820490506001821680610ca557607f821691505b602082108103610cb857610cb7610c61565b5b50919050565b5f82825260208201905092915050565b7f557365726e616d652072657175697265640000000000000000000000000000005f82015250565b5f610d02601183610cbe565b9150610d0d82610cce565b602082019050919050565b5f6020820190508181035f830152610d2f81610cf6565b9050919050565b7f43494420726571756972656400000000000000000000000000000000000000005f82015250565b5f610d6a600c83610cbe565b9150610d7582610d36565b602082019050919050565b5f6020820190508181035f830152610d9781610d5e565b9050919050565b7f4e487b71000000000000000000000000000000000000000000000000000000005f52601160045260245ffd5b5f610dd5826109a5565b91507fffffffffffffffffffffffffffffffffffffffffffffffffffffffffffffffff8203610e0757610e06610d9e565b5b600182019050919050565b5f81905092915050565b828183375f83830152505050565b5f610e358385610e12565b9350610e42838584610e1c565b82840190509392505050565b5f610e5a828486610e2a565b91508190509392505050565b7f557365726e616d652074616b656e0000000000000000000000000000000000005f82015250565b5f610e9a600e83610cbe565b9150610ea582610e66565b602082019050919050565b5f6020820190508181035f830152610ec781610e8e565b9050919050565b5f81905092915050565b5f610ee38385610ece565b9350610ef0838584610e1c565b82840190509392505050565b5f610f08828486610ed8565b91508190509392505050565b5f819050815f5260205f209050919050565b5f8154610f3281610c8e565b610f3c8186610ece565b9450600182165f8114610f565760018114610f6b57610f9d565b60ff1983168652811515820286019350610f9d565b610f7485610f14565b5f5b83811015610f9557815481890152600182019150602081019050610f76565b838801955050505b50505092915050565b5f610fb18284610f26565b915081905092915050565b5f819050815f5260205f209050919050565b5f8154610fda81610c8e565b610fe48186610e12565b9450600182165f8114610ffe576001811461101357611045565b60ff1983168652811515820286019350611045565b61101c85610fbc565b5f5b8381101561103d5781548189015260018201915060208101905061101e565b838801955050505b50505092915050565b5f6110598284610fce565b915081905092915050565b7f4e487b71000000000000000000000000000000000000000000000000000000005f52604160045260245ffd5b5f6020601f8301049050919050565b5f82821b905092915050565b5f600883026110db7fffffffffffffffffffffffffffffffffffffffffffffffffffffffffffffffff826110a0565b6110e586836110a0565b95508019841693508086168417925050509392505050565b5f819050919050565b5f61112061111b611116846109a5565b6110fd565b6109a5565b9050919050565b5f819050919050565b61113983611106565b61114d61114582611127565b8484546110ac565b825550505050565b5f5f905090565b611164611155565b61116f818484611130565b505050565b5b81811015611192576111875f8261115c565b600181019050611175565b5050565b601f8211156111d7576111a881610fbc565b6111b184611091565b810160208510156111c0578190505b6111d46111cc85611091565b830182611174565b50505b505050565b5f82821c905092915050565b5f6111f75f19846008026111dc565b1980831691505092915050565b5f61120f83836111e8565b9150826002028217905092915050565b611228826109bd565b67ffffffffffffffff81111561124157611240611064565b5b61124b8254610c8e565b611256828285611196565b5f60209050601f831160018114611287575f8415611275578287015190505b61127f8582611204565b8655506112e6565b601f19841661129586610fbc565b5f5b828110156112bc57848901518255600182019150602085019450602081019050611297565b868310156112d957848901516112d5601f8916826111e8565b8355505b6001600288020188555050505b505050505050565b5f6112f98385610cbe565b9350611306838584610e1c565b61130f836109e5565b840190509392505050565b5f6040820190508181035f8301526113338186886112ee565b905081810360208301526113488184866112ee565b90509594505050505056fea264697066735822122056cf51b2243f5b04f59092d3540b807176203108cff713e2f59670680c6663e264736f6c634300081e0033",
    "linkReferences": {}
  },
  "methodIdentifiers": {
    "getProfileByAddress(address)": "4cd6959c",
    "getUserByUsername(string)": "9f42af63",
    "setProfile(string,string,string)": "52640314"
  },
  "id": 16
}